{
  "_format": "hh-sol-artifact-1",
  "contractName": "BHealth",
  "sourceName": "contracts/Health.sol",
  "abi": [
    {
      "inputs": [
        {
          "internalType": "address",
          "name": "_chainlinkToken",
          "type": "address"
        },
        {
          "internalType": "address",
          "name": "_chainlinkOracle",
          "type": "address"
        }
      ],
      "stateMutability": "nonpayable",
      "type": "constructor"
    },
    {
      "anonymous": false,
      "inputs": [
        {
          "indexed": true,
          "internalType": "bytes32",
          "name": "id",
          "type": "bytes32"
        }
      ],
      "name": "ChainlinkCancelled",
      "type": "event"
    },
    {
      "anonymous": false,
      "inputs": [
        {
          "indexed": true,
          "internalType": "bytes32",
          "name": "id",
          "type": "bytes32"
        }
      ],
      "name": "ChainlinkFulfilled",
      "type": "event"
    },
    {
      "anonymous": false,
      "inputs": [
        {
          "indexed": true,
          "internalType": "bytes32",
          "name": "id",
          "type": "bytes32"
        }
      ],
      "name": "ChainlinkRequested",
      "type": "event"
    },
    {
      "inputs": [
        {
          "internalType": "address",
          "name": "_addr",
          "type": "address"
        }
      ],
      "name": "addPhysician",
      "outputs": [],
      "stateMutability": "nonpayable",
      "type": "function"
    },
    {
      "inputs": [
        {
          "internalType": "bytes32",
          "name": "requestId",
          "type": "bytes32"
        },
        {
          "internalType": "uint256",
          "name": "_id",
          "type": "uint256"
        },
        {
          "internalType": "uint256",
          "name": "_age",
          "type": "uint256"
        },
        {
          "internalType": "string",
          "name": "_first",
          "type": "string"
        },
        {
          "internalType": "string",
          "name": "_last",
          "type": "string"
        },
        {
          "internalType": "string",
          "name": "_location",
          "type": "string"
        },
        {
          "internalType": "string",
          "name": "_email",
          "type": "string"
        }
      ],
      "name": "fulfillPatient",
      "outputs": [],
      "stateMutability": "nonpayable",
      "type": "function"
    },
    {
      "inputs": [
        {
          "internalType": "bytes32",
          "name": "requestId",
          "type": "bytes32"
        },
        {
          "internalType": "uint256",
          "name": "_id",
          "type": "uint256"
        },
        {
          "internalType": "uint256",
          "name": "_physicianid",
          "type": "uint256"
        },
        {
          "internalType": "string",
          "name": "_medication",
          "type": "string"
        },
        {
          "internalType": "uint256",
          "name": "_date",
          "type": "uint256"
        },
        {
          "internalType": "uint256",
          "name": "_appointment",
          "type": "uint256"
        },
        {
          "internalType": "uint256",
          "name": "_dose",
          "type": "uint256"
        }
      ],
      "name": "fulfillPrescription",
      "outputs": [],
      "stateMutability": "nonpayable",
      "type": "function"
    },
    {
      "inputs": [],
      "name": "getPatienttruct",
      "outputs": [
        {
          "internalType": "uint256",
          "name": "",
          "type": "uint256"
        },
        {
          "internalType": "uint256",
          "name": "",
          "type": "uint256"
        },
        {
          "internalType": "string",
          "name": "",
          "type": "string"
        },
        {
          "internalType": "string",
          "name": "",
          "type": "string"
        },
        {
          "internalType": "string",
          "name": "",
          "type": "string"
        },
        {
          "internalType": "string",
          "name": "",
          "type": "string"
        }
      ],
      "stateMutability": "view",
      "type": "function"
    },
    {
      "inputs": [
        {
          "internalType": "address",
          "name": "_addr",
          "type": "address"
        }
      ],
      "name": "getPhysicianPatients",
      "outputs": [
        {
          "internalType": "string[]",
          "name": "",
          "type": "string[]"
        }
      ],
      "stateMutability": "view",
      "type": "function"
    },
    {
      "inputs": [],
      "name": "getPhysicians",
      "outputs": [
        {
          "internalType": "address[]",
          "name": "",
          "type": "address[]"
        }
      ],
      "stateMutability": "view",
      "type": "function"
    },
    {
      "inputs": [],
      "name": "getPrescriptiontruct",
      "outputs": [
        {
          "internalType": "uint256",
          "name": "",
          "type": "uint256"
        },
        {
          "internalType": "uint256",
          "name": "",
          "type": "uint256"
        },
        {
          "internalType": "string",
          "name": "",
          "type": "string"
        },
        {
          "internalType": "uint256",
          "name": "",
          "type": "uint256"
        },
        {
          "internalType": "uint256",
          "name": "",
          "type": "uint256"
        },
        {
          "internalType": "uint256",
          "name": "",
          "type": "uint256"
        }
      ],
      "stateMutability": "view",
      "type": "function"
    },
    {
      "inputs": [
        {
          "internalType": "address",
          "name": "_addr",
          "type": "address"
        }
      ],
      "name": "removePhysician",
      "outputs": [],
      "stateMutability": "nonpayable",
      "type": "function"
    },
    {
      "inputs": [
        {
          "internalType": "string",
          "name": "_patientid",
          "type": "string"
        }
      ],
      "name": "requestPatientData",
      "outputs": [],
      "stateMutability": "nonpayable",
      "type": "function"
    },
    {
      "inputs": [
        {
          "internalType": "string",
          "name": "_patientid",
          "type": "string"
        }
      ],
      "name": "requestPrescriptionData",
      "outputs": [],
      "stateMutability": "nonpayable",
      "type": "function"
    },
    {
      "inputs": [
        {
          "internalType": "address",
          "name": "_addr",
          "type": "address"
        },
        {
          "internalType": "string",
          "name": "_patientid",
          "type": "string"
        }
      ],
      "name": "setPhysicianByPateint",
      "outputs": [],
      "stateMutability": "nonpayable",
      "type": "function"
    }
  ],
  "bytecode": "0x608060405260016004557f38666434303531613363313134346165383463643530323131326635363564646006557f64356164616133663638323834626339383261383165346430323261613738396007553480156200005e57600080fd5b5060405162002b9238038062002b9283398181016040528101906200008491906200014d565b6200009582620000ae60201b60201c565b620000a681620000f260201b60201c565b5050620001e7565b80600260006101000a81548173ffffffffffffffffffffffffffffffffffffffff021916908373ffffffffffffffffffffffffffffffffffffffff16021790555050565b80600360006101000a81548173ffffffffffffffffffffffffffffffffffffffff021916908373ffffffffffffffffffffffffffffffffffffffff16021790555050565b6000815190506200014781620001cd565b92915050565b60008060408385031215620001675762000166620001c8565b5b6000620001778582860162000136565b92505060206200018a8582860162000136565b9150509250929050565b6000620001a182620001a8565b9050919050565b600073ffffffffffffffffffffffffffffffffffffffff82169050919050565b600080fd5b620001d88162000194565b8114620001e457600080fd5b50565b61299b80620001f76000396000f3fe608060405234801561001057600080fd5b50600436106100a95760003560e01c80635be565f9116100715780635be565f91461013c57806370cce1761461015f578063a3b8d5c91461017b578063a9dc035d14610197578063b5555ec2146101ba578063d0d69a9f146101ea576100a9565b806304ea9407146100ae5780632597075a146100ca5780632b2f6c67146100e85780632ef2a1f81461010457806355099e3114610120575b600080fd5b6100c860048036038101906100c39190611a2a565b610206565b005b6100d26103cd565b6040516100df9190612042565b60405180910390f35b61010260048036038101906100fd9190611bf2565b61045b565b005b61011e60048036038101906101199190611a2a565b6105eb565b005b61013a60048036038101906101359190611cb0565b610651565b005b6101446106d0565b60405161015696959493929190612143565b60405180910390f35b61017960048036038101906101749190611a57565b61079d565b005b61019560048036038101906101909190611ae0565b61081a565b005b61019f6109e3565b6040516101b1969594939291906120c6565b60405180910390f35b6101d460048036038101906101cf9190611a2a565b610c50565b6040516101e19190612064565b60405180910390f35b61020460048036038101906101ff9190611cb0565b610d68565b005b60005b600160098054905061021b91906124dd565b8110156103c9578173ffffffffffffffffffffffffffffffffffffffff166009828154811061024d5761024c6127ce565b5b9060005260206000200160009054906101000a900473ffffffffffffffffffffffffffffffffffffffff1673ffffffffffffffffffffffffffffffffffffffff1614156103b65760008190505b60016009805490506102ac91906124dd565b81101561036d5760096001826102c291906122bc565b815481106102d3576102d26127ce565b5b9060005260206000200160009054906101000a900473ffffffffffffffffffffffffffffffffffffffff1660098281548110610312576103116127ce565b5b9060005260206000200160006101000a81548173ffffffffffffffffffffffffffffffffffffffff021916908373ffffffffffffffffffffffffffffffffffffffff16021790555080806103659061266a565b91505061029a565b5060098054806103805761037f61279f565b5b6001900381819060005260206000200160006101000a81549073ffffffffffffffffffffffffffffffffffffffff021916905590555b80806103c19061266a565b915050610209565b5050565b6060600980548060200260200160405190810160405280929190818152602001828054801561045157602002820191906000526020600020905b8160009054906101000a900473ffffffffffffffffffffffffffffffffffffffff1673ffffffffffffffffffffffffffffffffffffffff1681526020019060010190808311610407575b5050505050905090565b866005600082815260200190815260200160002060009054906101000a900473ffffffffffffffffffffffffffffffffffffffff1673ffffffffffffffffffffffffffffffffffffffff163373ffffffffffffffffffffffffffffffffffffffff16146104fd576040517f08c379a00000000000000000000000000000000000000000000000000000000081526004016104f4906120a6565b60405180910390fd5b6005600082815260200190815260200160002060006101000a81549073ffffffffffffffffffffffffffffffffffffffff0219169055807f7cc135e0cebb02c3480ae5d74d377283180a2601f8f644edf7987b009316c63a60405160405180910390a26040518060c00160405280888152602001878152602001868152602001858152602001848152602001838152506010600082015181600001556020820151816001015560408201518160020190805190602001906105bf92919061183c565b50606082015181600301556080820151816004015560a082015181600501559050505050505050505050565b6009819080600181540180825580915050600190039060005260206000200160009091909190916101000a81548173ffffffffffffffffffffffffffffffffffffffff021916908373ffffffffffffffffffffffffffffffffffffffff16021790555050565b600067016345785d8a00009050600061067460075430632b2f6c6760e01b610ff7565b90506106c06040518060400160405280600981526020017f50617469656e744944000000000000000000000000000000000000000000000081525084836110289092919063ffffffff16565b6106ca818361105b565b50505050565b60008060606000806000601060000154601060010154601060020160106003015460106004015460106005015483805461070990612607565b80601f016020809104026020016040519081016040528092919081815260200182805461073590612607565b80156107825780601f1061075757610100808354040283529160200191610782565b820191906000526020600020905b81548152906001019060200180831161076557829003601f168201915b50505050509350955095509550955095509550909192939495565b600860008373ffffffffffffffffffffffffffffffffffffffff1673ffffffffffffffffffffffffffffffffffffffff1681526020019081526020016000208190806001815401808255809150506001900390600052602060002001600090919091909150908051906020019061081592919061183c565b505050565b866005600082815260200190815260200160002060009054906101000a900473ffffffffffffffffffffffffffffffffffffffff1673ffffffffffffffffffffffffffffffffffffffff163373ffffffffffffffffffffffffffffffffffffffff16146108bc576040517f08c379a00000000000000000000000000000000000000000000000000000000081526004016108b3906120a6565b60405180910390fd5b6005600082815260200190815260200160002060006101000a81549073ffffffffffffffffffffffffffffffffffffffff0219169055807f7cc135e0cebb02c3480ae5d74d377283180a2601f8f644edf7987b009316c63a60405160405180910390a26040518060c0016040528088815260200187815260200186815260200185815260200184815260200183815250600a6000820151816000015560208201518160010155604082015181600201908051906020019061097e92919061183c565b50606082015181600301908051906020019061099b92919061183c565b5060808201518160040190805190602001906109b892919061183c565b5060a08201518160050190805190602001906109d592919061183c565b509050505050505050505050565b600080606080606080600a60000154600a60010154600a600201600a600301600a600401600a600501838054610a1890612607565b80601f0160208091040260200160405190810160405280929190818152602001828054610a4490612607565b8015610a915780601f10610a6657610100808354040283529160200191610a91565b820191906000526020600020905b815481529060010190602001808311610a7457829003601f168201915b50505050509350828054610aa490612607565b80601f0160208091040260200160405190810160405280929190818152602001828054610ad090612607565b8015610b1d5780601f10610af257610100808354040283529160200191610b1d565b820191906000526020600020905b815481529060010190602001808311610b0057829003601f168201915b50505050509250818054610b3090612607565b80601f0160208091040260200160405190810160405280929190818152602001828054610b5c90612607565b8015610ba95780601f10610b7e57610100808354040283529160200191610ba9565b820191906000526020600020905b815481529060010190602001808311610b8c57829003601f168201915b50505050509150808054610bbc90612607565b80601f0160208091040260200160405190810160405280929190818152602001828054610be890612607565b8015610c355780601f10610c0a57610100808354040283529160200191610c35565b820191906000526020600020905b815481529060010190602001808311610c1857829003601f168201915b50505050509050955095509550955095509550909192939495565b6060600860008373ffffffffffffffffffffffffffffffffffffffff1673ffffffffffffffffffffffffffffffffffffffff168152602001908152602001600020805480602002602001604051908101604052809291908181526020016000905b82821015610d5d578382906000526020600020018054610cd090612607565b80601f0160208091040260200160405190810160405280929190818152602001828054610cfc90612607565b8015610d495780601f10610d1e57610100808354040283529160200191610d49565b820191906000526020600020905b815481529060010190602001808311610d2c57829003601f168201915b505050505081526020019060010190610cb1565b505050509050919050565b80600080600860003373ffffffffffffffffffffffffffffffffffffffff1673ffffffffffffffffffffffffffffffffffffffff1681526020019081526020016000208054905067ffffffffffffffff811115610dc857610dc76127fd565b5b604051908082528060200260200182016040528015610dfb57816020015b6060815260200190600190039081610de65790505b509050600860003373ffffffffffffffffffffffffffffffffffffffff1673ffffffffffffffffffffffffffffffffffffffff168152602001908152602001600020805480602002602001604051908101604052809291908181526020016000905b82821015610f09578382906000526020600020018054610e7c90612607565b80601f0160208091040260200160405190810160405280929190818152602001828054610ea890612607565b8015610ef55780601f10610eca57610100808354040283529160200191610ef5565b820191906000526020600020905b815481529060010190602001808311610ed857829003601f168201915b505050505081526020019060010190610e5d565b50505050905060005b8151811015610f63578380519060200120828281518110610f3657610f356127ce565b5b6020026020010151805190602001201415610f5057600192505b8080610f5b9061266a565b915050610f12565b506001151582151514610f7557600080fd5b600067016345785d8a000090506000610f986006543063a3b8d5c960e01b610ff7565b9050610fe46040518060400160405280600981526020017f50617469656e744944000000000000000000000000000000000000000000000081525087836110289092919063ffffffff16565b610fee818361105b565b50505050505050565b610fff6118c2565b6110076118c2565b61101e85858584611092909392919063ffffffff16565b9150509392505050565b61103f82846080015161114290919063ffffffff16565b61105681846080015161114290919063ffffffff16565b505050565b600061108a600360009054906101000a900473ffffffffffffffffffffffffffffffffffffffff168484611167565b905092915050565b61109a6118c2565b6110aa8560800151610100611231565b508385600001818152505082856020019073ffffffffffffffffffffffffffffffffffffffff16908173ffffffffffffffffffffffffffffffffffffffff16815250508185604001907bffffffffffffffffffffffffffffffffffffffffffffffffffffffff191690817bffffffffffffffffffffffffffffffffffffffffffffffffffffffff191681525050849050949350505050565b61114f826003835161129b565b611162818361142090919063ffffffff16565b505050565b600080600454905060018161117c91906122bc565b6004819055506000633c6d41b960e01b600080876000015188604001518660028b60800151600001516040516024016111bb9796959493929190611f8e565b604051602081830303815290604052907bffffffffffffffffffffffffffffffffffffffffffffffffffffffff19166020820180517bffffffffffffffffffffffffffffffffffffffffffffffffffffffff8381831617835250505050905061122686838684611442565b925050509392505050565b61123961192f565b600060208361124891906126e1565b146112745760208261125a91906126e1565b602061126691906124dd565b8261127191906122bc565b91505b81836020018181525050604051808452600081528281016020016040525082905092915050565b60178167ffffffffffffffff16116112d2576112cc8160058460ff16901b60ff1617846115e690919063ffffffff16565b5061141b565b60ff8167ffffffffffffffff161161132857611301601860058460ff16901b17846115e690919063ffffffff16565b506113228167ffffffffffffffff166001856116069092919063ffffffff16565b5061141a565b61ffff8167ffffffffffffffff161161137f57611358601960058460ff16901b17846115e690919063ffffffff16565b506113798167ffffffffffffffff166002856116069092919063ffffffff16565b50611419565b63ffffffff8167ffffffffffffffff16116113d8576113b1601a60058460ff16901b17846115e690919063ffffffff16565b506113d28167ffffffffffffffff166004856116069092919063ffffffff16565b50611418565b6113f5601b60058460ff16901b17846115e690919063ffffffff16565b506114168167ffffffffffffffff166008856116069092919063ffffffff16565b505b5b5b5b505050565b61142861192f565b61143a83846000015151848551611628565b905092915050565b60003084604051602001611457929190611f62565b604051602081830303815290604052805190602001209050846005600083815260200190815260200160002060006101000a81548173ffffffffffffffffffffffffffffffffffffffff021916908373ffffffffffffffffffffffffffffffffffffffff160217905550807fb5e6e01e79f91267dc17b4e6314d5d4d03593d2ceee0fbb452b750bd70ea5af960405160405180910390a2600260009054906101000a900473ffffffffffffffffffffffffffffffffffffffff1673ffffffffffffffffffffffffffffffffffffffff16634000aea08685856040518463ffffffff1660e01b815260040161154d93929190612004565b602060405180830381600087803b15801561156757600080fd5b505af115801561157b573d6000803e3d6000fd5b505050506040513d601f19601f8201168201806040525081019061159f9190611ab3565b6115de576040517f08c379a00000000000000000000000000000000000000000000000000000000081526004016115d590612086565b60405180910390fd5b949350505050565b6115ee61192f565b6115fe8384600001515184611717565b905092915050565b61160e61192f565b61161f84856000015151858561176e565b90509392505050565b61163061192f565b825182111561163e57600080fd5b8460200151828561164f91906122bc565b1115611684576116838560026116748860200151888761166f91906122bc565b6117fc565b61167e9190612483565b611818565b5b6000808651805187602083010193508088870111156116a35787860182525b60208701925050505b602084106116ea57805182526020826116c591906122bc565b91506020816116d491906122bc565b90506020846116e391906124dd565b93506116ac565b60006001856020036101000a03905080198251168184511681811785525050508692505050949350505050565b61171f61192f565b8360200151831061174557611744846002866020015161173f9190612483565b611818565b5b8351805160208583010184815381861415611761576001820183525b5050508390509392505050565b61177661192f565b8460200151848361178791906122bc565b11156117af576117ae856002868561179f91906122bc565b6117a99190612483565b611818565b5b60006001836101006117c19190612365565b6117cb91906124dd565b905085518386820101858319825116178152815185880111156117ee5784870182525b505085915050949350505050565b60008183111561180e57829050611812565b8190505b92915050565b60008260000151905061182b8383611231565b506118368382611420565b50505050565b82805461184890612607565b90600052602060002090601f01602090048101928261186a57600085556118b1565b82601f1061188357805160ff19168380011785556118b1565b828001600101855582156118b1579182015b828111156118b0578251825591602001919060010190611895565b5b5090506118be9190611949565b5090565b6040518060a0016040528060008019168152602001600073ffffffffffffffffffffffffffffffffffffffff16815260200160007bffffffffffffffffffffffffffffffffffffffffffffffffffffffff191681526020016000815260200161192961192f565b81525090565b604051806040016040528060608152602001600081525090565b5b8082111561196257600081600090555060010161194a565b5090565b6000611979611974846121d0565b6121ab565b90508281526020810184848401111561199557611994612831565b5b6119a08482856125c5565b509392505050565b6000813590506119b781612909565b92915050565b6000815190506119cc81612920565b92915050565b6000813590506119e181612937565b92915050565b600082601f8301126119fc576119fb61282c565b5b8135611a0c848260208601611966565b91505092915050565b600081359050611a248161294e565b92915050565b600060208284031215611a4057611a3f61283b565b5b6000611a4e848285016119a8565b91505092915050565b60008060408385031215611a6e57611a6d61283b565b5b6000611a7c858286016119a8565b925050602083013567ffffffffffffffff811115611a9d57611a9c612836565b5b611aa9858286016119e7565b9150509250929050565b600060208284031215611ac957611ac861283b565b5b6000611ad7848285016119bd565b91505092915050565b600080600080600080600060e0888a031215611aff57611afe61283b565b5b6000611b0d8a828b016119d2565b9750506020611b1e8a828b01611a15565b9650506040611b2f8a828b01611a15565b955050606088013567ffffffffffffffff811115611b5057611b4f612836565b5b611b5c8a828b016119e7565b945050608088013567ffffffffffffffff811115611b7d57611b7c612836565b5b611b898a828b016119e7565b93505060a088013567ffffffffffffffff811115611baa57611ba9612836565b5b611bb68a828b016119e7565b92505060c088013567ffffffffffffffff811115611bd757611bd6612836565b5b611be38a828b016119e7565b91505092959891949750929550565b600080600080600080600060e0888a031215611c1157611c1061283b565b5b6000611c1f8a828b016119d2565b9750506020611c308a828b01611a15565b9650506040611c418a828b01611a15565b955050606088013567ffffffffffffffff811115611c6257611c61612836565b5b611c6e8a828b016119e7565b9450506080611c7f8a828b01611a15565b93505060a0611c908a828b01611a15565b92505060c0611ca18a828b01611a15565b91505092959891949750929550565b600060208284031215611cc657611cc561283b565b5b600082013567ffffffffffffffff811115611ce457611ce3612836565b5b611cf0848285016119e7565b91505092915050565b6000611d058383611d25565b60208301905092915050565b6000611d1d8383611e84565b905092915050565b611d2e81612511565b82525050565b611d3d81612511565b82525050565b6000611d4e82612221565b611d588185612267565b9350611d6383612201565b8060005b83811015611d94578151611d7b8882611cf9565b9750611d868361224d565b925050600181019050611d67565b5085935050505092915050565b6000611dac8261222c565b611db68185612278565b935083602082028501611dc885612211565b8060005b85811015611e045784840389528151611de58582611d11565b9450611df08361225a565b925060208a01995050600181019050611dcc565b50829750879550505050505092915050565b611e1f8161252f565b82525050565b611e2e81612539565b82525050565b6000611e3f82612237565b611e498185612289565b9350611e598185602086016125d4565b611e6281612840565b840191505092915050565b611e7e611e798261258f565b6126b3565b82525050565b6000611e8f82612242565b611e99818561229a565b9350611ea98185602086016125d4565b611eb281612840565b840191505092915050565b6000611ec882612242565b611ed281856122ab565b9350611ee28185602086016125d4565b611eeb81612840565b840191505092915050565b6000611f036023836122ab565b9150611f0e8261286b565b604082019050919050565b6000611f266028836122ab565b9150611f31826128ba565b604082019050919050565b611f4581612585565b82525050565b611f5c611f5782612585565b6126d7565b82525050565b6000611f6e8285611e6d565b601482019150611f7e8284611f4b565b6020820191508190509392505050565b600060e082019050611fa3600083018a611d34565b611fb06020830189611f3c565b611fbd6040830188611e16565b611fca6060830187611e25565b611fd76080830186611f3c565b611fe460a0830185611f3c565b81810360c0830152611ff68184611e34565b905098975050505050505050565b60006060820190506120196000830186611d34565b6120266020830185611f3c565b81810360408301526120388184611e34565b9050949350505050565b6000602082019050818103600083015261205c8184611d43565b905092915050565b6000602082019050818103600083015261207e8184611da1565b905092915050565b6000602082019050818103600083015261209f81611ef6565b9050919050565b600060208201905081810360008301526120bf81611f19565b9050919050565b600060c0820190506120db6000830189611f3c565b6120e86020830188611f3c565b81810360408301526120fa8187611ebd565b9050818103606083015261210e8186611ebd565b905081810360808301526121228185611ebd565b905081810360a08301526121368184611ebd565b9050979650505050505050565b600060c0820190506121586000830189611f3c565b6121656020830188611f3c565b81810360408301526121778187611ebd565b90506121866060830186611f3c565b6121936080830185611f3c565b6121a060a0830184611f3c565b979650505050505050565b60006121b56121c6565b90506121c18282612639565b919050565b6000604051905090565b600067ffffffffffffffff8211156121eb576121ea6127fd565b5b6121f482612840565b9050602081019050919050565b6000819050602082019050919050565b6000819050602082019050919050565b600081519050919050565b600081519050919050565b600081519050919050565b600081519050919050565b6000602082019050919050565b6000602082019050919050565b600082825260208201905092915050565b600082825260208201905092915050565b600082825260208201905092915050565b600082825260208201905092915050565b600082825260208201905092915050565b60006122c782612585565b91506122d283612585565b9250827fffffffffffffffffffffffffffffffffffffffffffffffffffffffffffffffff0382111561230757612306612712565b5b828201905092915050565b6000808291508390505b600185111561235c5780860481111561233857612337612712565b5b60018516156123475780820291505b80810290506123558561285e565b945061231c565b94509492505050565b600061237082612585565b915061237b83612585565b92506123a87fffffffffffffffffffffffffffffffffffffffffffffffffffffffffffffffff84846123b0565b905092915050565b6000826123c0576001905061247c565b816123ce576000905061247c565b81600181146123e457600281146123ee5761241d565b600191505061247c565b60ff841115612400576123ff612712565b5b8360020a91508482111561241757612416612712565b5b5061247c565b5060208310610133831016604e8410600b84101617156124525782820a90508381111561244d5761244c612712565b5b61247c565b61245f8484846001612312565b9250905081840481111561247657612475612712565b5b81810290505b9392505050565b600061248e82612585565b915061249983612585565b9250817fffffffffffffffffffffffffffffffffffffffffffffffffffffffffffffffff04831182151516156124d2576124d1612712565b5b828202905092915050565b60006124e882612585565b91506124f383612585565b92508282101561250657612505612712565b5b828203905092915050565b600061251c82612565565b9050919050565b60008115159050919050565b6000819050919050565b60007fffffffff0000000000000000000000000000000000000000000000000000000082169050919050565b600073ffffffffffffffffffffffffffffffffffffffff82169050919050565b6000819050919050565b600061259a826125a1565b9050919050565b60006125ac826125b3565b9050919050565b60006125be82612565565b9050919050565b82818337600083830152505050565b60005b838110156125f25780820151818401526020810190506125d7565b83811115612601576000848401525b50505050565b6000600282049050600182168061261f57607f821691505b6020821081141561263357612632612770565b5b50919050565b61264282612840565b810181811067ffffffffffffffff82111715612661576126606127fd565b5b80604052505050565b600061267582612585565b91507fffffffffffffffffffffffffffffffffffffffffffffffffffffffffffffffff8214156126a8576126a7612712565b5b600182019050919050565b60006126be826126c5565b9050919050565b60006126d082612851565b9050919050565b6000819050919050565b60006126ec82612585565b91506126f783612585565b92508261270757612706612741565b5b828206905092915050565b7f4e487b7100000000000000000000000000000000000000000000000000000000600052601160045260246000fd5b7f4e487b7100000000000000000000000000000000000000000000000000000000600052601260045260246000fd5b7f4e487b7100000000000000000000000000000000000000000000000000000000600052602260045260246000fd5b7f4e487b7100000000000000000000000000000000000000000000000000000000600052603160045260246000fd5b7f4e487b7100000000000000000000000000000000000000000000000000000000600052603260045260246000fd5b7f4e487b7100000000000000000000000000000000000000000000000000000000600052604160045260246000fd5b600080fd5b600080fd5b600080fd5b600080fd5b6000601f19601f8301169050919050565b60008160601b9050919050565b60008160011c9050919050565b7f756e61626c6520746f207472616e73666572416e6443616c6c20746f206f726160008201527f636c650000000000000000000000000000000000000000000000000000000000602082015250565b7f536f75726365206d75737420626520746865206f7261636c65206f662074686560008201527f2072657175657374000000000000000000000000000000000000000000000000602082015250565b61291281612511565b811461291d57600080fd5b50565b61292981612523565b811461293457600080fd5b50565b6129408161252f565b811461294b57600080fd5b50565b61295781612585565b811461296257600080fd5b5056fea26469706673582212201ad5521494eae8bcd9901acc35a5ead3ba30cd01f53a0670573e2f7221bd903464736f6c63430008070033",
  "linkReferences": {},
  "deployedLinkReferences": {}
}